{
  "contractName": "Auction",
  "abi": [
    {
      "constant": true,
      "inputs": [
        {
          "name": "",
          "type": "address"
        }
      ],
      "name": "bids",
      "outputs": [
        {
          "name": "",
          "type": "uint256"
        }
      ],
      "payable": false,
      "stateMutability": "view",
      "type": "function"
    },
    {
      "constant": true,
      "inputs": [],
      "name": "auction_start",
      "outputs": [
        {
          "name": "",
          "type": "uint256"
        }
      ],
      "payable": false,
      "stateMutability": "view",
      "type": "function"
    },
    {
      "constant": true,
      "inputs": [],
      "name": "MyCar",
      "outputs": [
        {
          "name": "Brand",
          "type": "string"
        },
        {
          "name": "Rnumber",
          "type": "string"
        }
      ],
      "payable": false,
      "stateMutability": "view",
      "type": "function"
    },
    {
      "constant": true,
      "inputs": [],
      "name": "highestBidder",
      "outputs": [
        {
          "name": "",
          "type": "address"
        }
      ],
      "payable": false,
      "stateMutability": "view",
      "type": "function"
    },
    {
      "constant": true,
      "inputs": [],
      "name": "auction_end",
      "outputs": [
        {
          "name": "",
          "type": "uint256"
        }
      ],
      "payable": false,
      "stateMutability": "view",
      "type": "function"
    },
    {
      "constant": true,
      "inputs": [],
      "name": "STATE",
      "outputs": [
        {
          "name": "",
          "type": "uint8"
        }
      ],
      "payable": false,
      "stateMutability": "view",
      "type": "function"
    },
    {
      "constant": true,
      "inputs": [],
      "name": "highestBid",
      "outputs": [
        {
          "name": "",
          "type": "uint256"
        }
      ],
      "payable": false,
      "stateMutability": "view",
      "type": "function"
    },
    {
      "anonymous": false,
      "inputs": [
        {
          "indexed": true,
          "name": "highestBidder",
          "type": "address"
        },
        {
          "indexed": false,
          "name": "highestBid",
          "type": "uint256"
        }
      ],
      "name": "BidEvent",
      "type": "event"
    },
    {
      "anonymous": false,
      "inputs": [
        {
          "indexed": false,
          "name": "withdrawer",
          "type": "address"
        },
        {
          "indexed": false,
          "name": "amount",
          "type": "uint256"
        }
      ],
      "name": "WithdrawalEvent",
      "type": "event"
    },
    {
      "anonymous": false,
      "inputs": [
        {
          "indexed": false,
          "name": "message",
          "type": "string"
        },
        {
          "indexed": false,
          "name": "time",
          "type": "uint256"
        }
      ],
      "name": "CanceledEvent",
      "type": "event"
    },
    {
      "constant": false,
      "inputs": [],
      "name": "bid",
      "outputs": [
        {
          "name": "",
          "type": "bool"
        }
      ],
      "payable": true,
      "stateMutability": "payable",
      "type": "function"
    },
    {
      "constant": false,
      "inputs": [],
      "name": "withdraw",
      "outputs": [
        {
          "name": "",
          "type": "bool"
        }
      ],
      "payable": false,
      "stateMutability": "nonpayable",
      "type": "function"
    },
    {
      "constant": false,
      "inputs": [],
      "name": "cancel_auction",
      "outputs": [
        {
          "name": "",
          "type": "bool"
        }
      ],
      "payable": false,
      "stateMutability": "nonpayable",
      "type": "function"
    }
  ],
  "bytecode": "0x608060405234801561001057600080fd5b50610568806100206000396000f3fe6080604052600436106100915760003560e01c8063847f58b211610059578063847f58b2146101a657806391f90157146102a2578063c458b65a146102f9578063c486456c14610324578063d57bde791461035d57610091565b80631998aeef146100965780633ba88ca1146100b85780633ccfd60b146100e757806362ea82db1461011657806378f453401461017b575b600080fd5b61009e610388565b604051808215151515815260200191505060405180910390f35b3480156100c457600080fd5b506100cd61038d565b604051808215151515815260200191505060405180910390f35b3480156100f357600080fd5b506100fc610392565b604051808215151515815260200191505060405180910390f35b34801561012257600080fd5b506101656004803603602081101561013957600080fd5b81019080803573ffffffffffffffffffffffffffffffffffffffff169060200190929190505050610397565b6040518082815260200191505060405180910390f35b34801561018757600080fd5b506101906103af565b6040518082815260200191505060405180910390f35b3480156101b257600080fd5b506101bb6103b5565b604051808060200180602001838103835285818151815260200191508051906020019080838360005b838110156101ff5780820151818401526020810190506101e4565b50505050905090810190601f16801561022c5780820380516001836020036101000a031916815260200191505b50838103825284818151815260200191508051906020019080838360005b8381101561026557808201518184015260208101905061024a565b50505050905090810190601f1680156102925780820380516001836020036101000a031916815260200191505b5094505050505060405180910390f35b3480156102ae57600080fd5b506102b76104f7565b604051808273ffffffffffffffffffffffffffffffffffffffff1673ffffffffffffffffffffffffffffffffffffffff16815260200191505060405180910390f35b34801561030557600080fd5b5061030e61051d565b6040518082815260200191505060405180910390f35b34801561033057600080fd5b50610339610523565b6040518082600181111561034957fe5b60ff16815260200191505060405180910390f35b34801561036957600080fd5b50610372610536565b6040518082815260200191505060405180910390f35b600090565b600090565b600090565b60086020528060005260406000206000915090505481565b60015481565b6005806000018054600181600116156101000203166002900480601f01602080910402602001604051908101604052809291908181526020018280546001816001161561010002031660029004801561044f5780601f106104245761010080835404028352916020019161044f565b820191906000526020600020905b81548152906001019060200180831161043257829003601f168201915b505050505090806001018054600181600116156101000203166002900480601f0160208091040260200160405190810160405280929190818152602001828054600181600116156101000203166002900480156104ed5780601f106104c2576101008083540402835291602001916104ed565b820191906000526020600020905b8154815290600101906020018083116104d057829003601f168201915b5050505050905082565b600460009054906101000a900473ffffffffffffffffffffffffffffffffffffffff1681565b60025481565b600960009054906101000a900460ff1681565b6003548156fea165627a7a723058205712cb328d94a34d6ba0f69d97f6e77b150782047734a263987a5256c5bfc2480029",
  "source": "pragma solidity ^0.5.0;\n\ncontract Auction {\n    address internal auction_owner;\n    uint256 public auction_start;\n    uint256 public auction_end;\n    uint256 public highestBid;\n    address public highestBidder;\n\n    enum auction_state {CANCELLED, STARTED}\n\n    struct car {\n        string Brand;\n        string Rnumber;\n    }\n    car public MyCar;\n    address[] bidders;\n\n    mapping(address => uint256) public bids;\n\n    auction_state public STATE;\n\n    modifier an_ongoing_auction() {\n        require(now <= auction_end);\n        _;\n    }\n\n    modifier only_owner() {\n        require(msg.sender == auction_owner);\n        _;\n    }\n\n    function bid() public payable returns (bool) {}\n\n    function withdraw() public returns (bool) {}\n\n    function cancel_auction() external returns (bool) {}\n\n    event BidEvent(address indexed highestBidder, uint256 highestBid);\n    event WithdrawalEvent(address withdrawer, uint256 amount);\n    event CanceledEvent(string message, uint256 time);\n}",
  "sourcePath": "/home/suparerk/Documents/ethereum/Auction/contracts/Auction.sol",
  "compiler": {
    "name": "solc",
    "version": "0.5.8+commit.23d335f2.Emscripten.clang"
  },
  "schemaVersion": "3.0.16",
  "updatedAt": "2020-11-23T15:25:34.740Z",
  "devdoc": {
    "methods": {}
  },
  "userdoc": {
    "methods": {}
  }
}